{
  "contractName": "AquaGuard",
  "abi": [
    {
      "anonymous": false,
      "inputs": [
        {
          "indexed": false,
          "internalType": "string",
          "name": "serialNumber",
          "type": "string"
        },
        {
          "indexed": false,
          "internalType": "string",
          "name": "actuatorType",
          "type": "string"
        },
        {
          "indexed": false,
          "internalType": "bool",
          "name": "state",
          "type": "bool"
        },
        {
          "indexed": false,
          "internalType": "uint32",
          "name": "timestamp",
          "type": "uint32"
        }
      ],
      "name": "ActuatorStateUpdated",
      "type": "event"
    },
    {
      "anonymous": false,
      "inputs": [
        {
          "indexed": false,
          "internalType": "string",
          "name": "serialNumber",
          "type": "string"
        },
        {
          "indexed": true,
          "internalType": "address",
          "name": "owner",
          "type": "address"
        }
      ],
      "name": "DeviceRegistered",
      "type": "event"
    },
    {
      "anonymous": false,
      "inputs": [
        {
          "indexed": false,
          "internalType": "string",
          "name": "serialNumber",
          "type": "string"
        },
        {
          "indexed": false,
          "internalType": "string",
          "name": "sensorType",
          "type": "string"
        },
        {
          "indexed": false,
          "internalType": "string",
          "name": "value",
          "type": "string"
        },
        {
          "indexed": false,
          "internalType": "uint32",
          "name": "timestamp",
          "type": "uint32"
        }
      ],
      "name": "SensorDataLogged",
      "type": "event"
    },
    {
      "inputs": [
        {
          "internalType": "string",
          "name": "serialNumber",
          "type": "string"
        }
      ],
      "name": "registerDevice",
      "outputs": [],
      "stateMutability": "nonpayable",
      "type": "function"
    },
    {
      "inputs": [
        {
          "internalType": "string",
          "name": "serialNumber",
          "type": "string"
        },
        {
          "internalType": "string",
          "name": "sensorType",
          "type": "string"
        },
        {
          "internalType": "string",
          "name": "value",
          "type": "string"
        }
      ],
      "name": "logSensorData",
      "outputs": [],
      "stateMutability": "nonpayable",
      "type": "function"
    },
    {
      "inputs": [
        {
          "internalType": "string",
          "name": "serialNumber",
          "type": "string"
        },
        {
          "internalType": "string",
          "name": "actuatorType",
          "type": "string"
        },
        {
          "internalType": "bool",
          "name": "state",
          "type": "bool"
        }
      ],
      "name": "updateActuatorState",
      "outputs": [],
      "stateMutability": "nonpayable",
      "type": "function"
    },
    {
      "inputs": [
        {
          "internalType": "string",
          "name": "serialNumber",
          "type": "string"
        },
        {
          "internalType": "string",
          "name": "sensorType",
          "type": "string"
        }
      ],
      "name": "getSensorData",
      "outputs": [
        {
          "internalType": "string",
          "name": "value",
          "type": "string"
        },
        {
          "internalType": "uint32",
          "name": "lastUpdated",
          "type": "uint32"
        }
      ],
      "stateMutability": "view",
      "type": "function",
      "constant": true
    },
    {
      "inputs": [
        {
          "internalType": "string",
          "name": "serialNumber",
          "type": "string"
        },
        {
          "internalType": "string",
          "name": "actuatorType",
          "type": "string"
        }
      ],
      "name": "getActuatorState",
      "outputs": [
        {
          "internalType": "bool",
          "name": "state",
          "type": "bool"
        },
        {
          "internalType": "uint32",
          "name": "lastUpdated",
          "type": "uint32"
        }
      ],
      "stateMutability": "view",
      "type": "function",
      "constant": true
    }
  ],
  "bytecode": "0x6080604052348015600f57600080fd5b50610c828061001f6000396000f3fe608060405234801561001057600080fd5b50600436106100575760003560e01c80632c081f901461005c57806333d21a6314610071578063cf4b985e1461009b578063dd8833df146100ae578063ef8be232146100c1575b600080fd5b61006f61006a3660046107d6565b6100f0565b005b61008461007f366004610858565b610275565b604051610092929190610911565b60405180910390f35b61006f6100a9366004610939565b6103b3565b61006f6100bc366004610976565b610519565b6100d46100cf366004610858565b610685565b60408051921515835263ffffffff909116602083015201610092565b82336001600160a01b031660008260405161010b9190610a0a565b908152604051908190036020019020600101546001600160a01b03161461016a5760405162461bcd60e51b815260206004820152600e60248201526d139bdd08185d5d1a1bdc9a5e995960921b60448201526064015b60405180910390fd5b60008460405161017a9190610a0a565b9081526040519081900360200190206001015460ff600160a01b909104166101b45760405162461bcd60e51b815260040161016190610a26565b600080856040516101c59190610a0a565b9081526020016040518091039020600201846040516101e49190610a0a565b9081526040519081900360200190209050806102008582610ade565b5060018101805464ffffffffff191684151564ffffffff001916176101004263ffffffff811691909102919091179091556040517f0eb3dbbf7cbd6bf69c42ff5b502b825a559d08861aeb7ad42d756f5bc394abc3916102669188918891889190610b9d565b60405180910390a15050505050565b6060600080846040516102889190610a0a565b9081526040519081900360200190206001015460ff600160a01b909104166102c25760405162461bcd60e51b815260040161016190610a26565b600080856040516102d39190610a0a565b9081526020016040518091039020600301846040516102f29190610a0a565b90815260200160405180910390209050806001018160020160009054906101000a900463ffffffff1681805461032790610a55565b80601f016020809104026020016040519081016040528092919081815260200182805461035390610a55565b80156103a05780601f10610375576101008083540402835291602001916103a0565b820191906000526020600020905b81548152906001019060200180831161038357829003601f168201915b5050505050915092509250509250929050565b6000816040516103c39190610a0a565b9081526040519081900360200190206001015460ff600160a01b909104161561042e5760405162461bcd60e51b815260206004820152601960248201527f44657669636520616c72656164792072656769737465726564000000000000006044820152606401610161565b8060008260405161043f9190610a0a565b908152604051908190036020019020906104599082610ade565b503360008260405161046b9190610a0a565b908152602001604051809103902060010160006101000a8154816001600160a01b0302191690836001600160a01b0316021790555060016000826040516104b29190610a0a565b9081526040519081900360200181206001018054921515600160a01b0260ff60a01b199093169290921790915533907f10fc4a53238f78d2e8ef8aa41bafb46e41f929f68f8f4233c365ef14b2f5ed5c9061050e908490610be1565b60405180910390a250565b82336001600160a01b03166000826040516105349190610a0a565b908152604051908190036020019020600101546001600160a01b03161461058e5760405162461bcd60e51b815260206004820152600e60248201526d139bdd08185d5d1a1bdc9a5e995960921b6044820152606401610161565b60008460405161059e9190610a0a565b9081526040519081900360200190206001015460ff600160a01b909104166105d85760405162461bcd60e51b815260040161016190610a26565b600080856040516105e99190610a0a565b9081526020016040518091039020600301846040516106089190610a0a565b9081526040519081900360200190209050806106248582610ade565b50600181016106338482610ade565b5060028101805463ffffffff19164263ffffffff8116919091179091556040517f703c912fcf085b4c9d4bd7b1c95dbe793ff4ae681ecda17b7fa62bae8d6bf69f916102669188918891889190610bfb565b6000806000846040516106989190610a0a565b9081526040519081900360200190206001015460ff600160a01b909104166106d25760405162461bcd60e51b815260040161016190610a26565b600080856040516106e39190610a0a565b9081526020016040518091039020600201846040516107029190610a0a565b9081526040519081900360200190206001015460ff8116935063ffffffff610100909104169150509250929050565b634e487b7160e01b600052604160045260246000fd5b600082601f83011261075857600080fd5b813567ffffffffffffffff81111561077257610772610731565b604051601f8201601f19908116603f0116810167ffffffffffffffff811182821017156107a1576107a1610731565b6040528181528382016020018510156107b957600080fd5b816020850160208301376000918101602001919091529392505050565b6000806000606084860312156107eb57600080fd5b833567ffffffffffffffff81111561080257600080fd5b61080e86828701610747565b935050602084013567ffffffffffffffff81111561082b57600080fd5b61083786828701610747565b9250506040840135801515811461084d57600080fd5b809150509250925092565b6000806040838503121561086b57600080fd5b823567ffffffffffffffff81111561088257600080fd5b61088e85828601610747565b925050602083013567ffffffffffffffff8111156108ab57600080fd5b6108b785828601610747565b9150509250929050565b60005b838110156108dc5781810151838201526020016108c4565b50506000910152565b600081518084526108fd8160208601602086016108c1565b601f01601f19169290920160200192915050565b60408152600061092460408301856108e5565b905063ffffffff831660208301529392505050565b60006020828403121561094b57600080fd5b813567ffffffffffffffff81111561096257600080fd5b61096e84828501610747565b949350505050565b60008060006060848603121561098b57600080fd5b833567ffffffffffffffff8111156109a257600080fd5b6109ae86828701610747565b935050602084013567ffffffffffffffff8111156109cb57600080fd5b6109d786828701610747565b925050604084013567ffffffffffffffff8111156109f457600080fd5b610a0086828701610747565b9150509250925092565b60008251610a1c8184602087016108c1565b9190910192915050565b60208082526015908201527411195d9a58d9481b9bdd081c9959da5cdd195c9959605a1b604082015260600190565b600181811c90821680610a6957607f821691505b602082108103610a8957634e487b7160e01b600052602260045260246000fd5b50919050565b601f821115610ad957806000526020600020601f840160051c81016020851015610ab65750805b601f840160051c820191505b81811015610ad65760008155600101610ac2565b50505b505050565b815167ffffffffffffffff811115610af857610af8610731565b610b0c81610b068454610a55565b84610a8f565b6020601f821160018114610b405760008315610b285750848201515b600019600385901b1c1916600184901b178455610ad6565b600084815260208120601f198516915b82811015610b705787850151825560209485019460019092019101610b50565b5084821015610b8e5786840151600019600387901b60f8161c191681555b50505050600190811b01905550565b608081526000610bb060808301876108e5565b8281036020840152610bc281876108e5565b9415156040840152505063ffffffff9190911660609091015292915050565b602081526000610bf460208301846108e5565b9392505050565b608081526000610c0e60808301876108e5565b8281036020840152610c2081876108e5565b90508281036040840152610c3481866108e5565b91505063ffffffff831660608301529594505050505056fea2646970667358221220904ed3b5ca2c55ed61264ee84ecd51dbbf74c1da1aa41b945c9c46ee46bbd81a64736f6c634300081c0033",
  "immutableReferences": {},
  "source": "// SPDX-License-Identifier: MIT\npragma solidity ^0.8.0;\n \ncontract AquaGuard {\n    struct Actuator {\n        string actuatorType;\n        bool state;\n        uint32 lastUpdated;\n    }\n\n    struct Sensor {\n        string sensorType;\n        string value;\n        uint32 lastUpdated;\n    }\n\n    struct Device {\n        string serialNumber;\n        address owner;\n        bool isRegistered;\n        mapping(string => Actuator) actuators;\n        mapping(string => Sensor) sensors;\n    }\n\n    mapping(string => Device) private devices;\n\n    event DeviceRegistered(string serialNumber, address indexed owner);\n    event SensorDataLogged(string serialNumber, string sensorType, string value, uint32 timestamp);\n    event ActuatorStateUpdated(string serialNumber, string actuatorType, bool state, uint32 timestamp);\n\n    modifier onlyOwner(string memory serialNumber) {\n        require(devices[serialNumber].owner == msg.sender, \"Not authorized\");\n        _;\n    }\n\n    function registerDevice(string memory serialNumber) public {\n        require(!devices[serialNumber].isRegistered, \"Device already registered\");\n\n        devices[serialNumber].serialNumber = serialNumber;\n        devices[serialNumber].owner = msg.sender;\n        devices[serialNumber].isRegistered = true;\n\n        emit DeviceRegistered(serialNumber, msg.sender);\n    }\n\n    function logSensorData(\n        string memory serialNumber,\n        string memory sensorType,\n        string memory value\n    ) public onlyOwner(serialNumber) {\n        require(devices[serialNumber].isRegistered, \"Device not registered\");\n\n        Sensor storage sensor = devices[serialNumber].sensors[sensorType];\n        sensor.sensorType = sensorType;\n        sensor.value = value;\n        sensor.lastUpdated = uint32(block.timestamp);\n\n        emit SensorDataLogged(serialNumber, sensorType, value, uint32(block.timestamp));\n    }\n\n    function updateActuatorState(\n        string memory serialNumber,\n        string memory actuatorType,\n        bool state\n    ) public onlyOwner(serialNumber) {\n        require(devices[serialNumber].isRegistered, \"Device not registered\");\n\n        Actuator storage actuator = devices[serialNumber].actuators[actuatorType];\n        actuator.actuatorType = actuatorType;\n        actuator.state = state;\n        actuator.lastUpdated = uint32(block.timestamp);\n\n        emit ActuatorStateUpdated(serialNumber, actuatorType, state, uint32(block.timestamp));\n    }\n\n    function getSensorData(string memory serialNumber, string memory sensorType)\n        public\n        view\n        returns (string memory value, uint32 lastUpdated)\n    {\n        require(devices[serialNumber].isRegistered, \"Device not registered\");\n\n        Sensor storage sensor = devices[serialNumber].sensors[sensorType];\n        return (sensor.value, sensor.lastUpdated);\n    }\n\n    function getActuatorState(string memory serialNumber, string memory actuatorType)\n        public\n        view\n        returns (bool state, uint32 lastUpdated)\n    {\n        require(devices[serialNumber].isRegistered, \"Device not registered\");\n\n        Actuator storage actuator = devices[serialNumber].actuators[actuatorType];\n        return (actuator.state, actuator.lastUpdated);\n    }\n}\n",
  "sourcePath": "/Users/anasalseid/Documents/PersonalProjects/aqua-guard/aqua-guard-backend/blockchain/contracts/AquaGuard.sol",
  "compiler": {
    "name": "solc",
    "version": "0.8.28+commit.7893614a.Emscripten.clang"
  },
  "schemaVersion": "3.4.16",
  "updatedAt": "2024-12-20T23:27:57.320Z",
  "networkType": "ethereum",
  "devdoc": {
    "kind": "dev",
    "methods": {},
    "version": 1
  },
  "userdoc": {
    "kind": "user",
    "methods": {},
    "version": 1
  }
}