{
  "contractName": "AquaGuard",
  "abi": [
    {
      "inputs": [],
      "stateMutability": "nonpayable",
      "type": "constructor"
    },
    {
      "anonymous": false,
      "inputs": [
        {
          "indexed": false,
          "internalType": "string",
          "name": "serialNumber",
          "type": "string"
        },
        {
          "indexed": false,
          "internalType": "string",
          "name": "actuatorType",
          "type": "string"
        },
        {
          "indexed": false,
          "internalType": "bool",
          "name": "state",
          "type": "bool"
        },
        {
          "indexed": false,
          "internalType": "uint32",
          "name": "timestamp",
          "type": "uint32"
        }
      ],
      "name": "ActuatorStateUpdated",
      "type": "event"
    },
    {
      "anonymous": false,
      "inputs": [
        {
          "indexed": true,
          "internalType": "address",
          "name": "admin",
          "type": "address"
        }
      ],
      "name": "AdminAdded",
      "type": "event"
    },
    {
      "anonymous": false,
      "inputs": [
        {
          "indexed": true,
          "internalType": "address",
          "name": "admin",
          "type": "address"
        }
      ],
      "name": "AdminRemoved",
      "type": "event"
    },
    {
      "anonymous": false,
      "inputs": [
        {
          "indexed": false,
          "internalType": "string",
          "name": "serialNumber",
          "type": "string"
        },
        {
          "indexed": true,
          "internalType": "address",
          "name": "owner",
          "type": "address"
        }
      ],
      "name": "DeviceDeregistered",
      "type": "event"
    },
    {
      "anonymous": false,
      "inputs": [
        {
          "indexed": false,
          "internalType": "string",
          "name": "serialNumber",
          "type": "string"
        },
        {
          "indexed": true,
          "internalType": "address",
          "name": "owner",
          "type": "address"
        },
        {
          "indexed": false,
          "internalType": "string",
          "name": "metadata",
          "type": "string"
        }
      ],
      "name": "DeviceRegistered",
      "type": "event"
    },
    {
      "anonymous": false,
      "inputs": [
        {
          "indexed": false,
          "internalType": "string",
          "name": "serialNumber",
          "type": "string"
        },
        {
          "indexed": false,
          "internalType": "string",
          "name": "message",
          "type": "string"
        },
        {
          "indexed": false,
          "internalType": "uint32",
          "name": "timestamp",
          "type": "uint32"
        }
      ],
      "name": "NotificationAdded",
      "type": "event"
    },
    {
      "anonymous": false,
      "inputs": [
        {
          "indexed": false,
          "internalType": "string",
          "name": "serialNumber",
          "type": "string"
        },
        {
          "indexed": false,
          "internalType": "string",
          "name": "sensorType",
          "type": "string"
        },
        {
          "indexed": false,
          "internalType": "string",
          "name": "value",
          "type": "string"
        },
        {
          "indexed": false,
          "internalType": "uint32",
          "name": "timestamp",
          "type": "uint32"
        }
      ],
      "name": "SensorDataLogged",
      "type": "event"
    },
    {
      "inputs": [],
      "name": "contractOwner",
      "outputs": [
        {
          "internalType": "address",
          "name": "",
          "type": "address"
        }
      ],
      "stateMutability": "view",
      "type": "function"
    },
    {
      "inputs": [
        {
          "internalType": "address",
          "name": "admin",
          "type": "address"
        }
      ],
      "name": "addAdmin",
      "outputs": [],
      "stateMutability": "nonpayable",
      "type": "function"
    },
    {
      "inputs": [
        {
          "internalType": "address",
          "name": "admin",
          "type": "address"
        }
      ],
      "name": "removeAdmin",
      "outputs": [],
      "stateMutability": "nonpayable",
      "type": "function"
    },
    {
      "inputs": [
        {
          "internalType": "string",
          "name": "serialNumber",
          "type": "string"
        },
        {
          "internalType": "string",
          "name": "metadata",
          "type": "string"
        }
      ],
      "name": "registerDevice",
      "outputs": [],
      "stateMutability": "nonpayable",
      "type": "function"
    },
    {
      "inputs": [
        {
          "internalType": "string",
          "name": "serialNumber",
          "type": "string"
        }
      ],
      "name": "deregisterDevice",
      "outputs": [],
      "stateMutability": "nonpayable",
      "type": "function"
    },
    {
      "inputs": [
        {
          "internalType": "string",
          "name": "serialNumber",
          "type": "string"
        },
        {
          "internalType": "string",
          "name": "sensorType",
          "type": "string"
        },
        {
          "internalType": "string",
          "name": "value",
          "type": "string"
        }
      ],
      "name": "logSensorData",
      "outputs": [],
      "stateMutability": "nonpayable",
      "type": "function"
    },
    {
      "inputs": [
        {
          "internalType": "string",
          "name": "serialNumber",
          "type": "string"
        },
        {
          "internalType": "string",
          "name": "actuatorType",
          "type": "string"
        },
        {
          "internalType": "bool",
          "name": "state",
          "type": "bool"
        }
      ],
      "name": "updateActuatorState",
      "outputs": [],
      "stateMutability": "nonpayable",
      "type": "function"
    },
    {
      "inputs": [
        {
          "internalType": "string",
          "name": "serialNumber",
          "type": "string"
        }
      ],
      "name": "getNotifications",
      "outputs": [
        {
          "components": [
            {
              "internalType": "string",
              "name": "message",
              "type": "string"
            },
            {
              "internalType": "uint32",
              "name": "timestamp",
              "type": "uint32"
            }
          ],
          "internalType": "struct AquaGuard.Notification[]",
          "name": "",
          "type": "tuple[]"
        }
      ],
      "stateMutability": "view",
      "type": "function"
    },
    {
      "inputs": [
        {
          "internalType": "string",
          "name": "serialNumber",
          "type": "string"
        },
        {
          "internalType": "string",
          "name": "sensorType",
          "type": "string"
        }
      ],
      "name": "getSensorData",
      "outputs": [
        {
          "internalType": "string",
          "name": "value",
          "type": "string"
        },
        {
          "internalType": "uint32",
          "name": "lastUpdated",
          "type": "uint32"
        }
      ],
      "stateMutability": "view",
      "type": "function"
    },
    {
      "inputs": [
        {
          "internalType": "string",
          "name": "serialNumber",
          "type": "string"
        },
        {
          "internalType": "string",
          "name": "actuatorType",
          "type": "string"
        }
      ],
      "name": "getActuatorState",
      "outputs": [
        {
          "internalType": "bool",
          "name": "state",
          "type": "bool"
        },
        {
          "internalType": "uint32",
          "name": "lastUpdated",
          "type": "uint32"
        }
      ],
      "stateMutability": "view",
      "type": "function"
    }
  ],
  "bytecode": "0x6080604052348015600f57600080fd5b50600380546001600160a01b031916339081179091556000908152600260205260409020805460ff191660011790556115408061004d6000396000f3fe608060405234801561001057600080fd5b506004361061009e5760003560e01c80637048027511610066578063704802751461011b578063b3f273ea1461012e578063ce606ee01461014e578063dd8833df14610179578063ef8be2321461018c57600080fd5b80631785f53c146100a35780632c081f90146100b857806333d21a63146100cb57806334a5497a146100f55780634c32f34714610108575b600080fd5b6100b66100b1366004610dfc565b6101bb565b005b6100b66100c6366004610ed1565b610271565b6100de6100d9366004610f53565b61043c565b6040516100ec92919061100c565b60405180910390f35b6100b6610103366004611034565b61057a565b6100b6610116366004610f53565b6106d4565b6100b6610129366004610dfc565b610865565b61014161013c366004611034565b610916565b6040516100ec9190611071565b600354610161906001600160a01b031681565b6040516001600160a01b0390911681526020016100ec565b6100b66101873660046110f0565b610a7f565b61019f61019a366004610f53565b610be9565b60408051921515835263ffffffff9091166020830152016100ec565b6003546001600160a01b031633146102285760405162461bcd60e51b815260206004820152602560248201527f4f6e6c7920636f6e7472616374206f776e65722063616e2072656d6f76652061604482015264646d696e7360d81b60648201526084015b60405180910390fd5b6001600160a01b038116600081815260026020526040808220805460ff19169055517fa3b62bc36326052d97ea62d63c3d60308ed4c3ea8ac079dd8499f1e9c4f80c0f9190a250565b82336001600160a01b031660008260405161028c9190611184565b908152604051908190036020019020600101546001600160a01b0316146102c55760405162461bcd60e51b815260040161021f906111a0565b6000846040516102d59190611184565b9081526040519081900360200190206001015460ff600160a01b9091041661030f5760405162461bcd60e51b815260040161021f906111c8565b600080856040516103209190611184565b90815260200160405180910390206003018460405161033f9190611184565b90815260405190819003602001902090508061035b858261127d565b5060018101805464ffffffffff191684151564ffffffff001916176101004263ffffffff811691909102919091179091556040517f0eb3dbbf7cbd6bf69c42ff5b502b825a559d08861aeb7ad42d756f5bc394abc3916103c1918891889188919061133c565b60405180910390a16104358585856103f4576040518060400160405280600381526020016227a32360e91b815250610410565b6040518060400160405280600281526020016127a760f11b8152505b604051602001610421929190611380565b604051602081830303815290604052610c95565b5050505050565b60606000808460405161044f9190611184565b9081526040519081900360200190206001015460ff600160a01b909104166104895760405162461bcd60e51b815260040161021f906111c8565b6000808560405161049a9190611184565b9081526020016040518091039020600401846040516104b99190611184565b90815260200160405180910390209050806001018160020160009054906101000a900463ffffffff168180546104ee906111f7565b80601f016020809104026020016040519081016040528092919081815260200182805461051a906111f7565b80156105675780601f1061053c57610100808354040283529160200191610567565b820191906000526020600020905b81548152906001019060200180831161054a57829003601f168201915b5050505050915092509250509250929050565b80336001600160a01b03166000826040516105959190611184565b908152604051908190036020019020600101546001600160a01b0316146105ce5760405162461bcd60e51b815260040161021f906111a0565b6000826040516105de9190611184565b9081526040519081900360200190206001015460ff600160a01b909104166106185760405162461bcd60e51b815260040161021f906111c8565b6000826040516106289190611184565b90815260405190819003602001902060006106438282610d59565b6001820180546001600160a81b0319169055610663600283016000610d59565b50506001826040516106759190611184565b9081526020016040518091039020600061068f9190610d96565b336001600160a01b03167fcce05249e3071b2d252bce0163cef0adfae7fb7e94c3096cc627e058a56fb609836040516106c891906113e2565b60405180910390a25050565b6000826040516106e49190611184565b9081526040519081900360200190206001015460ff600160a01b909104161561074f5760405162461bcd60e51b815260206004820152601960248201527f44657669636520616c7265616479207265676973746572656400000000000000604482015260640161021f565b816000836040516107609190611184565b9081526040519081900360200190209061077a908261127d565b503360008360405161078c9190611184565b908152602001604051809103902060010160006101000a8154816001600160a01b0302191690836001600160a01b0316021790555060016000836040516107d39190611184565b908152602001604051809103902060010160146101000a81548160ff0219169083151502179055508060008360405161080c9190611184565b90815260200160405180910390206002019081610829919061127d565b50336001600160a01b03167f014111c1679aefcc9a8d78be929dfd8ec99544ff394163de76ecab2ecc25410483836040516106c89291906113f5565b6003546001600160a01b031633146108ca5760405162461bcd60e51b815260206004820152602260248201527f4f6e6c7920636f6e7472616374206f776e65722063616e206164642061646d696044820152616e7360f01b606482015260840161021f565b6001600160a01b038116600081815260026020526040808220805460ff19166001179055517f44d6d25963f097ad14f29f06854a01f575648a1ef82f30e562ccd3889717e3399190a250565b60606000826040516109289190611184565b9081526040519081900360200190206001015460ff600160a01b909104166109625760405162461bcd60e51b815260040161021f906111c8565b6001826040516109729190611184565b9081526020016040518091039020805480602002602001604051908101604052809291908181526020016000905b82821015610a7457838290600052602060002090600202016040518060400160405290816000820180546109d3906111f7565b80601f01602080910402602001604051908101604052809291908181526020018280546109ff906111f7565b8015610a4c5780601f10610a2157610100808354040283529160200191610a4c565b820191906000526020600020905b815481529060010190602001808311610a2f57829003601f168201915b505050918352505060019182015463ffffffff166020918201529183529290920191016109a0565b505050509050919050565b82336001600160a01b0316600082604051610a9a9190611184565b908152604051908190036020019020600101546001600160a01b031614610ad35760405162461bcd60e51b815260040161021f906111a0565b600084604051610ae39190611184565b9081526040519081900360200190206001015460ff600160a01b90910416610b1d5760405162461bcd60e51b815260040161021f906111c8565b60008085604051610b2e9190611184565b908152602001604051809103902060040184604051610b4d9190611184565b908152604051908190036020019020905080610b69858261127d565b5060018101610b78848261127d565b5060028101805463ffffffff19164263ffffffff8116919091179091556040517f703c912fcf085b4c9d4bd7b1c95dbe793ff4ae681ecda17b7fa62bae8d6bf69f91610bca9188918891889190611423565b60405180910390a1610435858585604051602001610421929190611474565b600080600084604051610bfc9190611184565b9081526040519081900360200190206001015460ff600160a01b90910416610c365760405162461bcd60e51b815260040161021f906111c8565b60008085604051610c479190611184565b908152602001604051809103902060030184604051610c669190611184565b9081526040519081900360200190206001015460ff8116935063ffffffff610100909104169150509250929050565b60408051808201825282815263ffffffff421660208201529051600190610cbd908590611184565b908152604051602091819003820190208054600181018255600091825291902082518392600202909101908190610cf4908261127d565b50602091909101516001909101805463ffffffff191663ffffffff9092169190911790556040517fdf8b8cbbc8dc83242da322a343c3adb2bacc95a29592fd429890b30a13f277a190610d4c908590859042906114ce565b60405180910390a1505050565b508054610d65906111f7565b6000825580601f10610d75575050565b601f016020900490600052602060002090810190610d939190610db7565b50565b5080546000825560020290600052602060002090810190610d939190610dd0565b5b80821115610dcc5760008155600101610db8565b5090565b80821115610dcc576000610de48282610d59565b5060018101805463ffffffff19169055600201610dd0565b600060208284031215610e0e57600080fd5b81356001600160a01b0381168114610e2557600080fd5b9392505050565b634e487b7160e01b600052604160045260246000fd5b600082601f830112610e5357600080fd5b813567ffffffffffffffff811115610e6d57610e6d610e2c565b604051601f8201601f19908116603f0116810167ffffffffffffffff81118282101715610e9c57610e9c610e2c565b604052818152838201602001851015610eb457600080fd5b816020850160208301376000918101602001919091529392505050565b600080600060608486031215610ee657600080fd5b833567ffffffffffffffff811115610efd57600080fd5b610f0986828701610e42565b935050602084013567ffffffffffffffff811115610f2657600080fd5b610f3286828701610e42565b92505060408401358015158114610f4857600080fd5b809150509250925092565b60008060408385031215610f6657600080fd5b823567ffffffffffffffff811115610f7d57600080fd5b610f8985828601610e42565b925050602083013567ffffffffffffffff811115610fa657600080fd5b610fb285828601610e42565b9150509250929050565b60005b83811015610fd7578181015183820152602001610fbf565b50506000910152565b60008151808452610ff8816020860160208601610fbc565b601f01601f19169290920160200192915050565b60408152600061101f6040830185610fe0565b905063ffffffff831660208301529392505050565b60006020828403121561104657600080fd5b813567ffffffffffffffff81111561105d57600080fd5b61106984828501610e42565b949350505050565b6000602082016020835280845180835260408501915060408160051b86010192506020860160005b828110156110e457603f1987860301845281518051604087526110bf6040880182610fe0565b60209283015163ffffffff169783019790975250938401939190910190600101611099565b50929695505050505050565b60008060006060848603121561110557600080fd5b833567ffffffffffffffff81111561111c57600080fd5b61112886828701610e42565b935050602084013567ffffffffffffffff81111561114557600080fd5b61115186828701610e42565b925050604084013567ffffffffffffffff81111561116e57600080fd5b61117a86828701610e42565b9150509250925092565b60008251611196818460208701610fbc565b9190910192915050565b6020808252600e908201526d139bdd08185d5d1a1bdc9a5e995960921b604082015260600190565b60208082526015908201527411195d9a58d9481b9bdd081c9959da5cdd195c9959605a1b604082015260600190565b600181811c9082168061120b57607f821691505b60208210810361122b57634e487b7160e01b600052602260045260246000fd5b50919050565b601f82111561127857806000526020600020601f840160051c810160208510156112585750805b601f840160051c820191505b818110156104355760008155600101611264565b505050565b815167ffffffffffffffff81111561129757611297610e2c565b6112ab816112a584546111f7565b84611231565b6020601f8211600181146112df57600083156112c75750848201515b600019600385901b1c1916600184901b178455610435565b600084815260208120601f198516915b8281101561130f57878501518255602094850194600190920191016112ef565b508482101561132d5786840151600019600387901b60f8161c191681555b50505050600190811b01905550565b60808152600061134f6080830187610fe0565b82810360208401526113618187610fe0565b9415156040840152505063ffffffff9190911660609091015292915050565b68020b1ba3ab0ba37b9160bd1b8152600083516113a4816009850160208801610fbc565b7101039ba30ba32903ab83230ba32b2103a37960751b60099184019182015283516113d681601b840160208801610fbc565b01601b01949350505050565b602081526000610e256020830184610fe0565b6040815260006114086040830185610fe0565b828103602084015261141a8185610fe0565b95945050505050565b6080815260006114366080830187610fe0565b82810360208401526114488187610fe0565b9050828103604084015261145c8186610fe0565b91505063ffffffff8316606083015295945050505050565b66029b2b739b7b9160cd1b815260008351611496816007850160208801610fbc565b6b0103ab83230ba32b2103a37960a51b60079184019182015283516114c2816013840160208801610fbc565b01601301949350505050565b6060815260006114e16060830186610fe0565b82810360208401526114f38186610fe0565b91505063ffffffff8316604083015294935050505056fea264697066735822122064a0d22382b980c9cbf083edc5a464662c0ae8ca2bbb322605a962c05167266b64736f6c634300081c0033",
  "immutableReferences": {},
  "source": "// SPDX-License-Identifier: MIT\npragma solidity ^0.8.0;\n\ncontract AquaGuard {\n    struct Actuator {\n        string actuatorType;\n        bool state;\n        uint32 lastUpdated;\n    }\n\n    struct Sensor {\n        string sensorType;\n        string value;\n        uint32 lastUpdated;\n    }\n\n    struct Device {\n        string serialNumber;\n        address owner;\n        bool isRegistered;\n        string metadata; // Additional device information\n        mapping(string => Actuator) actuators;\n        mapping(string => Sensor) sensors;\n    }\n\n    struct Notification {\n        string message;\n        uint32 timestamp;\n    }\n\n    mapping(string => Device) private devices;\n    mapping(string => Notification[]) private deviceNotifications; // Notifications per device\n    mapping(address => bool) private admins;\n\n    address public contractOwner;\n\n    event DeviceRegistered(string serialNumber, address indexed owner, string metadata);\n    event DeviceDeregistered(string serialNumber, address indexed owner);\n    event SensorDataLogged(string serialNumber, string sensorType, string value, uint32 timestamp);\n    event ActuatorStateUpdated(string serialNumber, string actuatorType, bool state, uint32 timestamp);\n    event NotificationAdded(string serialNumber, string message, uint32 timestamp);\n    event AdminAdded(address indexed admin);\n    event AdminRemoved(address indexed admin);\n\n    modifier onlyOwner(string memory serialNumber) {\n        require(devices[serialNumber].owner == msg.sender, \"Not authorized\");\n        _;\n    }\n\n    modifier onlyAdmin() {\n        require(admins[msg.sender], \"Not an admin\");\n        _;\n    }\n\n    constructor() {\n        contractOwner = msg.sender;\n        admins[msg.sender] = true; // Contract deployer is the first admin\n    }\n\n    // Admin Management\n    function addAdmin(address admin) public {\n        require(msg.sender == contractOwner, \"Only contract owner can add admins\");\n        admins[admin] = true;\n        emit AdminAdded(admin);\n    }\n\n    function removeAdmin(address admin) public {\n        require(msg.sender == contractOwner, \"Only contract owner can remove admins\");\n        admins[admin] = false;\n        emit AdminRemoved(admin);\n    }\n\n    // Register Device\n    function registerDevice(string memory serialNumber, string memory metadata) public {\n        require(!devices[serialNumber].isRegistered, \"Device already registered\");\n\n        devices[serialNumber].serialNumber = serialNumber;\n        devices[serialNumber].owner = msg.sender;\n        devices[serialNumber].isRegistered = true;\n        devices[serialNumber].metadata = metadata;\n\n        emit DeviceRegistered(serialNumber, msg.sender, metadata);\n    }\n\n    // Deregister Device\n    function deregisterDevice(string memory serialNumber) public onlyOwner(serialNumber) {\n        require(devices[serialNumber].isRegistered, \"Device not registered\");\n\n        delete devices[serialNumber];\n        delete deviceNotifications[serialNumber];\n\n        emit DeviceDeregistered(serialNumber, msg.sender);\n    }\n\n    // Log Sensor Data\n    function logSensorData(\n        string memory serialNumber,\n        string memory sensorType,\n        string memory value\n    ) public onlyOwner(serialNumber) {\n        require(devices[serialNumber].isRegistered, \"Device not registered\");\n\n        Sensor storage sensor = devices[serialNumber].sensors[sensorType];\n        sensor.sensorType = sensorType;\n        sensor.value = value;\n        sensor.lastUpdated = uint32(block.timestamp);\n\n        emit SensorDataLogged(serialNumber, sensorType, value, uint32(block.timestamp));\n\n        // Add a notification\n        addNotification(serialNumber, string(abi.encodePacked(\"Sensor \", sensorType, \" updated to \", value)));\n    }\n\n    // Update Actuator State\n    function updateActuatorState(\n        string memory serialNumber,\n        string memory actuatorType,\n        bool state\n    ) public onlyOwner(serialNumber) {\n        require(devices[serialNumber].isRegistered, \"Device not registered\");\n\n        Actuator storage actuator = devices[serialNumber].actuators[actuatorType];\n        actuator.actuatorType = actuatorType;\n        actuator.state = state;\n        actuator.lastUpdated = uint32(block.timestamp);\n\n        emit ActuatorStateUpdated(serialNumber, actuatorType, state, uint32(block.timestamp));\n\n        // Add a notification\n        addNotification(\n            serialNumber,\n            string(\n                abi.encodePacked(\n                    \"Actuator \",\n                    actuatorType,\n                    \" state updated to \",\n                    state ? \"ON\" : \"OFF\"\n                )\n            )\n        );\n    }\n\n    // Add a Notification\n    function addNotification(string memory serialNumber, string memory message) internal {\n        Notification memory notification = Notification({\n            message: message,\n            timestamp: uint32(block.timestamp)\n        });\n\n        deviceNotifications[serialNumber].push(notification);\n\n        emit NotificationAdded(serialNumber, message, uint32(block.timestamp));\n    }\n\n    // Get Notifications for a Device\n    function getNotifications(string memory serialNumber)\n        public\n        view\n        returns (Notification[] memory)\n    {\n        require(devices[serialNumber].isRegistered, \"Device not registered\");\n        return deviceNotifications[serialNumber];\n    }\n\n    // Get Sensor Data\n    function getSensorData(string memory serialNumber, string memory sensorType)\n        public\n        view\n        returns (string memory value, uint32 lastUpdated)\n    {\n        require(devices[serialNumber].isRegistered, \"Device not registered\");\n\n        Sensor storage sensor = devices[serialNumber].sensors[sensorType];\n        return (sensor.value, sensor.lastUpdated);\n    }\n\n    // Get Actuator State\n    function getActuatorState(string memory serialNumber, string memory actuatorType)\n        public\n        view\n        returns (bool state, uint32 lastUpdated)\n    {\n        require(devices[serialNumber].isRegistered, \"Device not registered\");\n\n        Actuator storage actuator = devices[serialNumber].actuators[actuatorType];\n        return (actuator.state, actuator.lastUpdated);\n    }\n}\n",
  "sourcePath": "/Users/anasalseid/Documents/PersonalProjects/aqua-guard/aqua-guard-backend/blockchain/contracts/AquaGuard.sol",
  "compiler": {
    "name": "solc",
    "version": "0.8.28+commit.7893614a.Emscripten.clang"
  },
  "schemaVersion": "3.4.16",
  "updatedAt": "2025-01-17T15:34:22.243Z",
  "devdoc": {
    "kind": "dev",
    "methods": {},
    "version": 1
  },
  "userdoc": {
    "kind": "user",
    "methods": {},
    "version": 1
  }
}