{
  "contractName": "AquaGuard",
  "abi": [
    {
      "anonymous": false,
      "inputs": [
        {
          "indexed": false,
          "internalType": "string",
          "name": "serialNumber",
          "type": "string"
        },
        {
          "indexed": false,
          "internalType": "string",
          "name": "actuatorType",
          "type": "string"
        },
        {
          "indexed": false,
          "internalType": "bool",
          "name": "state",
          "type": "bool"
        },
        {
          "indexed": false,
          "internalType": "uint256",
          "name": "timestamp",
          "type": "uint256"
        }
      ],
      "name": "ActuatorStateUpdated",
      "type": "event"
    },
    {
      "anonymous": false,
      "inputs": [
        {
          "indexed": false,
          "internalType": "string",
          "name": "serialNumber",
          "type": "string"
        },
        {
          "indexed": true,
          "internalType": "address",
          "name": "owner",
          "type": "address"
        }
      ],
      "name": "DeviceRegistered",
      "type": "event"
    },
    {
      "anonymous": false,
      "inputs": [
        {
          "indexed": false,
          "internalType": "string",
          "name": "serialNumber",
          "type": "string"
        },
        {
          "indexed": false,
          "internalType": "string",
          "name": "sensorType",
          "type": "string"
        },
        {
          "indexed": false,
          "internalType": "string",
          "name": "value",
          "type": "string"
        },
        {
          "indexed": false,
          "internalType": "uint256",
          "name": "timestamp",
          "type": "uint256"
        }
      ],
      "name": "SensorDataLogged",
      "type": "event"
    },
    {
      "inputs": [
        {
          "internalType": "string",
          "name": "serialNumber",
          "type": "string"
        }
      ],
      "name": "registerDevice",
      "outputs": [],
      "stateMutability": "nonpayable",
      "type": "function"
    },
    {
      "inputs": [
        {
          "internalType": "string",
          "name": "serialNumber",
          "type": "string"
        },
        {
          "internalType": "string",
          "name": "sensorType",
          "type": "string"
        },
        {
          "internalType": "string",
          "name": "value",
          "type": "string"
        }
      ],
      "name": "logSensorData",
      "outputs": [],
      "stateMutability": "nonpayable",
      "type": "function"
    },
    {
      "inputs": [
        {
          "internalType": "string",
          "name": "serialNumber",
          "type": "string"
        },
        {
          "internalType": "string",
          "name": "actuatorType",
          "type": "string"
        },
        {
          "internalType": "bool",
          "name": "state",
          "type": "bool"
        }
      ],
      "name": "updateActuatorState",
      "outputs": [],
      "stateMutability": "nonpayable",
      "type": "function"
    },
    {
      "inputs": [
        {
          "internalType": "string",
          "name": "serialNumber",
          "type": "string"
        },
        {
          "internalType": "string",
          "name": "sensorType",
          "type": "string"
        }
      ],
      "name": "getSensorData",
      "outputs": [
        {
          "internalType": "string",
          "name": "value",
          "type": "string"
        },
        {
          "internalType": "uint256",
          "name": "lastUpdated",
          "type": "uint256"
        }
      ],
      "stateMutability": "view",
      "type": "function"
    },
    {
      "inputs": [
        {
          "internalType": "string",
          "name": "serialNumber",
          "type": "string"
        },
        {
          "internalType": "string",
          "name": "actuatorType",
          "type": "string"
        }
      ],
      "name": "getActuatorState",
      "outputs": [
        {
          "internalType": "bool",
          "name": "state",
          "type": "bool"
        },
        {
          "internalType": "uint256",
          "name": "lastUpdated",
          "type": "uint256"
        }
      ],
      "stateMutability": "view",
      "type": "function"
    }
  ],
  "bytecode": "0x6080604052348015600f57600080fd5b50610bce8061001f6000396000f3fe608060405234801561001057600080fd5b50600436106100575760003560e01c80632c081f901461005c57806333d21a6314610071578063cf4b985e1461009b578063dd8833df146100ae578063ef8be232146100c1575b600080fd5b61006f61006a366004610739565b6100eb565b005b61008461007f3660046107bb565b610258565b604051610092929190610874565b60405180910390f35b61006f6100a9366004610896565b610386565b61006f6100bc3660046108d3565b610494565b6100d46100cf3660046107bb565b6105ec565b604080519215158352602083019190915201610092565b82336001600160a01b03166000826040516101069190610967565b908152604051908190036020019020600101546001600160a01b0316146101655760405162461bcd60e51b815260206004820152600e60248201526d139bdd08185d5d1a1bdc9a5e995960921b60448201526064015b60405180910390fd5b6000846040516101759190610967565b9081526040519081900360200190206001015460ff600160a01b909104166101af5760405162461bcd60e51b815260040161015c90610983565b600080856040516101c09190610967565b9081526020016040518091039020600201846040516101df9190610967565b9081526040519081900360200190209050806101fb8582610a3b565b5060018101805460ff191684151517905542600282018190556040517f50ce51dd313246061727d0373df506b36a320ea97b2efa232f6b5180f202f55d916102499188918891889190610afa565b60405180910390a15050505050565b60606000808460405161026b9190610967565b9081526040519081900360200190206001015460ff600160a01b909104166102a55760405162461bcd60e51b815260040161015c90610983565b600080856040516102b69190610967565b9081526020016040518091039020600301846040516102d59190610967565b908152602001604051809103902090508060010181600201548180546102fa906109b2565b80601f0160208091040260200160405190810160405280929190818152602001828054610326906109b2565b80156103735780601f1061034857610100808354040283529160200191610373565b820191906000526020600020905b81548152906001019060200180831161035657829003601f168201915b5050505050915092509250509250929050565b6000816040516103969190610967565b9081526040519081900360200190206001015460ff600160a01b90910416156104015760405162461bcd60e51b815260206004820152601960248201527f44657669636520616c7265616479207265676973746572656400000000000000604482015260640161015c565b600080826040516104129190610967565b90815260405190819003602001902090508061042e8382610a3b565b5060018101805460ff60a01b19339081166001600160a81b031990921691909117600160a01b179091556040517f10fc4a53238f78d2e8ef8aa41bafb46e41f929f68f8f4233c365ef14b2f5ed5c90610488908590610b33565b60405180910390a25050565b82336001600160a01b03166000826040516104af9190610967565b908152604051908190036020019020600101546001600160a01b0316146105095760405162461bcd60e51b815260206004820152600e60248201526d139bdd08185d5d1a1bdc9a5e995960921b604482015260640161015c565b6000846040516105199190610967565b9081526040519081900360200190206001015460ff600160a01b909104166105535760405162461bcd60e51b815260040161015c90610983565b600080856040516105649190610967565b9081526020016040518091039020600301846040516105839190610967565b90815260405190819003602001902090508061059f8582610a3b565b50600181016105ae8482610a3b565b5042600282018190556040517f8591e68d07efe30d7eb26d181c5f93330815e0e030605f2eba7c44822a2f8729916102499188918891889190610b4d565b6000806000846040516105ff9190610967565b9081526040519081900360200190206001015460ff600160a01b909104166106395760405162461bcd60e51b815260040161015c90610983565b6000808560405161064a9190610967565b9081526020016040518091039020600201846040516106699190610967565b908152604051908190036020019020600181015460029091015460ff90911693509150509250929050565b634e487b7160e01b600052604160045260246000fd5b600082601f8301126106bb57600080fd5b813567ffffffffffffffff8111156106d5576106d5610694565b604051601f8201601f19908116603f0116810167ffffffffffffffff8111828210171561070457610704610694565b60405281815283820160200185101561071c57600080fd5b816020850160208301376000918101602001919091529392505050565b60008060006060848603121561074e57600080fd5b833567ffffffffffffffff81111561076557600080fd5b610771868287016106aa565b935050602084013567ffffffffffffffff81111561078e57600080fd5b61079a868287016106aa565b925050604084013580151581146107b057600080fd5b809150509250925092565b600080604083850312156107ce57600080fd5b823567ffffffffffffffff8111156107e557600080fd5b6107f1858286016106aa565b925050602083013567ffffffffffffffff81111561080e57600080fd5b61081a858286016106aa565b9150509250929050565b60005b8381101561083f578181015183820152602001610827565b50506000910152565b60008151808452610860816020860160208601610824565b601f01601f19169290920160200192915050565b6040815260006108876040830185610848565b90508260208301529392505050565b6000602082840312156108a857600080fd5b813567ffffffffffffffff8111156108bf57600080fd5b6108cb848285016106aa565b949350505050565b6000806000606084860312156108e857600080fd5b833567ffffffffffffffff8111156108ff57600080fd5b61090b868287016106aa565b935050602084013567ffffffffffffffff81111561092857600080fd5b610934868287016106aa565b925050604084013567ffffffffffffffff81111561095157600080fd5b61095d868287016106aa565b9150509250925092565b60008251610979818460208701610824565b9190910192915050565b60208082526015908201527411195d9a58d9481b9bdd081c9959da5cdd195c9959605a1b604082015260600190565b600181811c908216806109c657607f821691505b6020821081036109e657634e487b7160e01b600052602260045260246000fd5b50919050565b601f821115610a3657806000526020600020601f840160051c81016020851015610a135750805b601f840160051c820191505b81811015610a335760008155600101610a1f565b50505b505050565b815167ffffffffffffffff811115610a5557610a55610694565b610a6981610a6384546109b2565b846109ec565b6020601f821160018114610a9d5760008315610a855750848201515b600019600385901b1c1916600184901b178455610a33565b600084815260208120601f198516915b82811015610acd5787850151825560209485019460019092019101610aad565b5084821015610aeb5786840151600019600387901b60f8161c191681555b50505050600190811b01905550565b608081526000610b0d6080830187610848565b8281036020840152610b1f8187610848565b941515604084015250506060015292915050565b602081526000610b466020830184610848565b9392505050565b608081526000610b606080830187610848565b8281036020840152610b728187610848565b90508281036040840152610b868186610848565b9150508260608301529594505050505056fea2646970667358221220dd2ffa5ae7799137091e383536a6806abbd9160a91372c2af3782d7d6095881964736f6c634300081c0033",
  "immutableReferences": {},
  "source": "// SPDX-License-Identifier: MIT\npragma solidity ^0.8.0;\n\ncontract AquaGuard {\n    struct Actuator {\n        string actuatorType;\n        bool state;\n        uint256 lastUpdated;\n    }\n\n    struct Sensor {\n        string sensorType;\n        string value;\n        uint256 lastUpdated;\n    }\n\n    struct Device {\n        string serialNumber;\n        address owner;\n        bool isRegistered;\n        mapping(string => Actuator) actuators;\n        mapping(string => Sensor) sensors;\n    }\n\n    mapping(string => Device) private devices;\n\n    event DeviceRegistered(string serialNumber, address indexed owner);\n    event SensorDataLogged(string serialNumber, string sensorType, string value, uint256 timestamp);\n    event ActuatorStateUpdated(string serialNumber, string actuatorType, bool state, uint256 timestamp);\n\n    modifier onlyOwner(string memory serialNumber) {\n        require(devices[serialNumber].owner == msg.sender, \"Not authorized\");\n        _;\n    }\n\n    function registerDevice(string memory serialNumber) public {\n        require(!devices[serialNumber].isRegistered, \"Device already registered\");\n\n        Device storage newDevice = devices[serialNumber];\n        newDevice.serialNumber = serialNumber;\n        newDevice.owner = msg.sender;\n        newDevice.isRegistered = true;\n\n        emit DeviceRegistered(serialNumber, msg.sender);\n    }\n\n    function logSensorData(\n        string memory serialNumber,\n        string memory sensorType,\n        string memory value\n    ) public onlyOwner(serialNumber) {\n        require(devices[serialNumber].isRegistered, \"Device not registered\");\n\n        Sensor storage sensor = devices[serialNumber].sensors[sensorType];\n        sensor.sensorType = sensorType;\n        sensor.value = value;\n        sensor.lastUpdated = block.timestamp;\n\n        emit SensorDataLogged(serialNumber, sensorType, value, block.timestamp);\n    }\n\n    function updateActuatorState(\n        string memory serialNumber,\n        string memory actuatorType,\n        bool state\n    ) public onlyOwner(serialNumber) {\n        require(devices[serialNumber].isRegistered, \"Device not registered\");\n\n        Actuator storage actuator = devices[serialNumber].actuators[actuatorType];\n        actuator.actuatorType = actuatorType;\n        actuator.state = state;\n        actuator.lastUpdated = block.timestamp;\n\n        emit ActuatorStateUpdated(serialNumber, actuatorType, state, block.timestamp);\n    }\n\n    function getSensorData(string memory serialNumber, string memory sensorType)\n        public\n        view\n        returns (string memory value, uint256 lastUpdated)\n    {\n        require(devices[serialNumber].isRegistered, \"Device not registered\");\n\n        Sensor storage sensor = devices[serialNumber].sensors[sensorType];\n        return (sensor.value, sensor.lastUpdated);\n    }\n\n    function getActuatorState(string memory serialNumber, string memory actuatorType)\n        public\n        view\n        returns (bool state, uint256 lastUpdated)\n    {\n        require(devices[serialNumber].isRegistered, \"Device not registered\");\n\n        Actuator storage actuator = devices[serialNumber].actuators[actuatorType];\n        return (actuator.state, actuator.lastUpdated);\n    }\n}\n",
  "sourcePath": "/Users/anasalseid/Documents/PersonalProjects/aqua-guard/aqua-guard-backend/blockchain/contracts/AquaGuard.sol",
  "compiler": {
    "name": "solc",
    "version": "0.8.28+commit.7893614a.Emscripten.clang"
  },
  "schemaVersion": "3.4.16",
  "updatedAt": "2024-12-20T12:58:28.951Z",
  "devdoc": {
    "kind": "dev",
    "methods": {},
    "version": 1
  },
  "userdoc": {
    "kind": "user",
    "methods": {},
    "version": 1
  }
}